{
  "abi": [
    {
      "anonymous": false,
      "inputs": [
        {
          "indexed": false,
          "internalType": "uint256",
          "name": "balance",
          "type": "uint256"
        },
        {
          "indexed": false,
          "internalType": "string",
          "name": "name",
          "type": "string"
        }
      ],
      "name": "BalanceOf",
      "type": "event"
    },
    {
      "anonymous": false,
      "inputs": [
        {
          "indexed": false,
          "internalType": "address",
          "name": "loanToken",
          "type": "address"
        },
        {
          "indexed": false,
          "internalType": "address",
          "name": "iToken",
          "type": "address"
        },
        {
          "indexed": false,
          "internalType": "uint256",
          "name": "loanAmount",
          "type": "uint256"
        }
      ],
      "name": "ExecuteOperation",
      "type": "event"
    },
    {
      "anonymous": false,
      "inputs": [
        {
          "indexed": true,
          "internalType": "address",
          "name": "previousOwner",
          "type": "address"
        },
        {
          "indexed": true,
          "internalType": "address",
          "name": "newOwner",
          "type": "address"
        }
      ],
      "name": "OwnershipTransferred",
      "type": "event"
    },
    {
      "inputs": [],
      "name": "ETH_TOKEN_ADDRESS",
      "outputs": [
        {
          "internalType": "contract ERC20",
          "name": "",
          "type": "address"
        }
      ],
      "stateMutability": "view",
      "type": "function"
    },
    {
      "inputs": [],
      "name": "KYBER_PROXY",
      "outputs": [
        {
          "internalType": "contract IKyber",
          "name": "",
          "type": "address"
        }
      ],
      "stateMutability": "view",
      "type": "function"
    },
    {
      "inputs": [],
      "name": "USDC",
      "outputs": [
        {
          "internalType": "address",
          "name": "",
          "type": "address"
        }
      ],
      "stateMutability": "view",
      "type": "function"
    },
    {
      "inputs": [
        {
          "internalType": "address",
          "name": "token",
          "type": "address"
        },
        {
          "internalType": "address",
          "name": "iToken",
          "type": "address"
        },
        {
          "internalType": "uint256",
          "name": "amount",
          "type": "uint256"
        }
      ],
      "name": "doStuffWithFlashLoan",
      "outputs": [],
      "stateMutability": "nonpayable",
      "type": "function"
    },
    {
      "inputs": [
        {
          "internalType": "address",
          "name": "loanToken",
          "type": "address"
        },
        {
          "internalType": "address",
          "name": "iToken",
          "type": "address"
        },
        {
          "internalType": "uint256",
          "name": "loanAmount",
          "type": "uint256"
        }
      ],
      "name": "executeOperation",
      "outputs": [
        {
          "internalType": "bytes",
          "name": "success",
          "type": "bytes"
        }
      ],
      "stateMutability": "nonpayable",
      "type": "function"
    },
    {
      "inputs": [
        {
          "internalType": "contract ERC20",
          "name": "srcToken",
          "type": "address"
        },
        {
          "internalType": "contract ERC20",
          "name": "destToken",
          "type": "address"
        },
        {
          "internalType": "uint256",
          "name": "srcQty",
          "type": "uint256"
        }
      ],
      "name": "getRate",
      "outputs": [
        {
          "internalType": "uint256",
          "name": "",
          "type": "uint256"
        }
      ],
      "stateMutability": "nonpayable",
      "type": "function"
    },
    {
      "inputs": [],
      "name": "owner",
      "outputs": [
        {
          "internalType": "address",
          "name": "",
          "type": "address"
        }
      ],
      "stateMutability": "view",
      "type": "function"
    },
    {
      "inputs": [],
      "name": "renounceOwnership",
      "outputs": [],
      "stateMutability": "nonpayable",
      "type": "function"
    },
    {
      "inputs": [
        {
          "internalType": "contract ERC20",
          "name": "token",
          "type": "address"
        },
        {
          "internalType": "address",
          "name": "destAddress",
          "type": "address"
        }
      ],
      "name": "swapEtherToToken",
      "outputs": [],
      "stateMutability": "payable",
      "type": "function"
    },
    {
      "inputs": [
        {
          "internalType": "contract ERC20",
          "name": "srcToken",
          "type": "address"
        },
        {
          "internalType": "uint256",
          "name": "srcQty",
          "type": "uint256"
        },
        {
          "internalType": "contract ERC20",
          "name": "destToken",
          "type": "address"
        },
        {
          "internalType": "address",
          "name": "destAddress",
          "type": "address"
        }
      ],
      "name": "swapTokenToToken",
      "outputs": [],
      "stateMutability": "nonpayable",
      "type": "function"
    },
    {
      "inputs": [
        {
          "internalType": "address",
          "name": "newOwner",
          "type": "address"
        }
      ],
      "name": "transferOwnership",
      "outputs": [],
      "stateMutability": "nonpayable",
      "type": "function"
    }
  ],
  "bytecode": "6080604052600180546001600160a01b031916739aab3f75489902f3a48495025729a0af77d4b11e17905534801561003657600080fd5b506000610041610090565b600080546001600160a01b0319166001600160a01b0383169081178255604051929350917f8be0079c531659141344cd1fd0a4f28419497f9722a3daafe3b4186f6b6457e0908290a350610094565b3390565b61162b806100a36000396000f3fe60806040526004361061009c5760003560e01c80635ba29ed2116100645780635ba29ed214610143578063715018a61461016357806389a30271146101785780638da5cb5b1461018d578063e56c174b146101a2578063f2fde38b146101cf5761009c565b806301e992f5146100a15780631878d1f1146100b65780632a77b18b146100e157806332d853331461010e5780634fb7db3f1461012e575b600080fd5b6100b46100af366004611293565b6101ef565b005b3480156100c257600080fd5b506100cb6103a4565b6040516100d89190611398565b60405180910390f35b3480156100ed57600080fd5b506101016100fc366004611198565b6103bc565b6040516100d891906113e9565b34801561011a57600080fd5b506100b4610129366004611198565b610a75565b34801561013a57600080fd5b506100cb610c42565b34801561014f57600080fd5b506100b461015e3660046112df565b610c51565b34801561016f57600080fd5b506100b4610df2565b34801561018457600080fd5b506100cb610e71565b34801561019957600080fd5b506100cb610e89565b3480156101ae57600080fd5b506101c26101bd3660046112cb565b610e98565b6040516100d891906114d8565b3480156101db57600080fd5b506100b46101ea366004611175565b610f2b565b60015460405163809a9e5560e01b81526000916001600160a01b03169063809a9e55906102389073eeeeeeeeeeeeeeeeeeeeeeeeeeeeeeeeeeeeeeee90879034906004016113ac565b604080518083038186803b15801561024f57600080fd5b505afa158015610263573d6000803e3d6000fd5b505050506040513d601f19601f820116820180604052508101906102879190611349565b600154604051633d15022b60e11b8152919350600092506001600160a01b031690637a2a04569034906102c090889087906004016113d0565b6020604051808303818588803b1580156102d957600080fd5b505af11580156102ed573d6000803e3d6000fd5b50505050506040513d601f19601f820116820180604052508101906103129190611331565b60405163a9059cbb60e01b81529091506001600160a01b0385169063a9059cbb9061034390869085906004016113d0565b602060405180830381600087803b15801561035d57600080fd5b505af1158015610371573d6000803e3d6000fd5b505050506040513d601f19601f8201168201806040525081019061039591906111d8565b61039e57600080fd5b50505050565b73eeeeeeeeeeeeeeeeeeeeeeeeeeeeeeeeeeeeeeee81565b60607fc2b282e2bfa85928b833b779034da20be2d6c7536ef9afd46b64f327d8ecdc8b8484846040516103f1939291906113ac565b60405180910390a16040516370a0823160e01b81526000805160206115d68339815191529073a0b86991c6218b36c1d19d4a2e9eb0ce3606eb48906370a0823190610440903090600401611398565b60206040518083038186803b15801561045857600080fd5b505afa15801561046c573d6000803e3d6000fd5b505050506040513d601f19601f820116820180604052508101906104909190611331565b60405161049d919061156c565b60405180910390a16040516370a0823160e01b81526000805160206115d6833981519152906001600160a01b038616906370a08231906104e1903090600401611398565b60206040518083038186803b1580156104f957600080fd5b505afa15801561050d573d6000803e3d6000fd5b505050506040513d601f19601f820116820180604052508101906105319190611331565b60405161053e9190611521565b60405180910390a160015460405163095ea7b360e01b815273a0b86991c6218b36c1d19d4a2e9eb0ce3606eb489163095ea7b39161058c916001600160a01b031690600019906004016113d0565b602060405180830381600087803b1580156105a657600080fd5b505af11580156105ba573d6000803e3d6000fd5b505050506040513d601f19601f820116820180604052508101906105de91906111d8565b5060015460405163095ea7b360e01b81526001600160a01b038681169263095ea7b3926106159290911690600019906004016113d0565b602060405180830381600087803b15801561062f57600080fd5b505af1158015610643573d6000803e3d6000fd5b505050506040513d601f19601f8201168201806040525081019061066791906111d8565b5060015460405163809a9e5560e01b8152600091670de0b6b3a76400008502916001600160a01b039091169063809a9e55906106bf90899073a0b86991c6218b36c1d19d4a2e9eb0ce3606eb489086906004016113ac565b604080518083038186803b1580156106d657600080fd5b505afa1580156106ea573d6000803e3d6000fd5b505050506040513d601f19601f8201168201806040525081019061070e9190611349565b600154604051637409e2eb60e01b8152919450600092506001600160a01b031690637409e2eb9061075d908a90869073a0b86991c6218b36c1d19d4a2e9eb0ce3606eb489089906004016113fc565b602060405180830381600087803b15801561077757600080fd5b505af115801561078b573d6000803e3d6000fd5b505050506040513d601f19601f820116820180604052508101906107af9190611331565b60015460405163809a9e5560e01b8152620f4240880294509192506001600160a01b03169063809a9e55906108009073a0b86991c6218b36c1d19d4a2e9eb0ce3606eb48908b9087906004016113ac565b604080518083038186803b15801561081757600080fd5b505afa15801561082b573d6000803e3d6000fd5b505050506040513d601f19601f8201168201806040525081019061084f9190611349565b600154604051637409e2eb60e01b81529195506001600160a01b03169150637409e2eb9061089b9073a0b86991c6218b36c1d19d4a2e9eb0ce3606eb489086908c9089906004016113fc565b602060405180830381600087803b1580156108b557600080fd5b505af11580156108c9573d6000803e3d6000fd5b505050506040513d601f19601f820116820180604052508101906108ed9190611331565b6040516370a0823160e01b81529091506000805160206115d68339815191529073a0b86991c6218b36c1d19d4a2e9eb0ce3606eb48906370a0823190610937903090600401611398565b60206040518083038186803b15801561094f57600080fd5b505afa158015610963573d6000803e3d6000fd5b505050506040513d601f19601f820116820180604052508101906109879190611331565b604051610994919061156c565b60405180910390a16040516370a0823160e01b81526000805160206115d6833981519152906001600160a01b038916906370a08231906109d8903090600401611398565b60206040518083038186803b1580156109f057600080fd5b505afa158015610a04573d6000803e3d6000fd5b505050506040513d601f19601f82011682018060405250810190610a289190611331565b604051610a359190611521565b60405180910390a1610a52878787670de0b6b3a764000002610fe1565b50506040805180820190915260018152603160f81b602082015295945050505050565b610a7d611061565b6000546001600160a01b03908116911614610ab35760405162461bcd60e51b8152600401610aaa906114a3565b60405180910390fd5b60606000805160206115d6833981519152846001600160a01b03166370a08231306040518263ffffffff1660e01b8152600401610af09190611398565b60206040518083038186803b158015610b0857600080fd5b505afa158015610b1c573d6000803e3d6000fd5b505050506040513d601f19601f82011682018060405250810190610b409190611331565b604051610b4d9190611546565b60405180910390a1610b60848484611065565b90506000805160206115d6833981519152846001600160a01b03166370a08231306040518263ffffffff1660e01b8152600401610b9d9190611398565b60206040518083038186803b158015610bb557600080fd5b505afa158015610bc9573d6000803e3d6000fd5b505050506040513d601f19601f82011682018060405250810190610bed9190611331565b604051610bfa9190611546565b60405180910390a1610c25604051806040016040528060018152602001603160f81b81525082611148565b1561039e5760405162461bcd60e51b8152600401610aaa9061146c565b6001546001600160a01b031681565b60015460405163809a9e5560e01b81526000916001600160a01b03169063809a9e5590610c86908890879089906004016113ac565b604080518083038186803b158015610c9d57600080fd5b505afa158015610cb1573d6000803e3d6000fd5b505050506040513d601f19601f82011682018060405250810190610cd59190611349565b60015460405163095ea7b360e01b81529193506001600160a01b03808916935063095ea7b392610d0d929091169088906004016113d0565b602060405180830381600087803b158015610d2757600080fd5b505af1158015610d3b573d6000803e3d6000fd5b505050506040513d601f19601f82011682018060405250810190610d5f91906111d8565b50600154604051637409e2eb60e01b81526000916001600160a01b031690637409e2eb90610d979089908990899088906004016113fc565b602060405180830381600087803b158015610db157600080fd5b505af1158015610dc5573d6000803e3d6000fd5b505050506040513d601f19601f82011682018060405250810190610de99190611331565b50505050505050565b610dfa611061565b6000546001600160a01b03908116911614610e275760405162461bcd60e51b8152600401610aaa906114a3565b600080546040516001600160a01b03909116907f8be0079c531659141344cd1fd0a4f28419497f9722a3daafe3b4186f6b6457e0908390a3600080546001600160a01b0319169055565b73a0b86991c6218b36c1d19d4a2e9eb0ce3606eb4881565b6000546001600160a01b031690565b60015460405163809a9e5560e01b8152600091829182916001600160a01b03169063809a9e5590610ed1908990899089906004016113ac565b604080518083038186803b158015610ee857600080fd5b505afa158015610efc573d6000803e3d6000fd5b505050506040513d601f19601f82011682018060405250810190610f209190611349565b979650505050505050565b610f33611061565b6000546001600160a01b03908116911614610f605760405162461bcd60e51b8152600401610aaa906114a3565b6001600160a01b038116610f865760405162461bcd60e51b8152600401610aaa90611426565b600080546040516001600160a01b03808516939216917f8be0079c531659141344cd1fd0a4f28419497f9722a3daafe3b4186f6b6457e091a3600080546001600160a01b0319166001600160a01b0392909216919091179055565b60405163a9059cbb60e01b81526001600160a01b0384169063a9059cbb9061100f90859085906004016113d0565b602060405180830381600087803b15801561102957600080fd5b505af115801561103d573d6000803e3d6000fd5b505050506040513d601f19601f8201168201806040525081019061039e91906111d8565b3390565b60606000839050806001600160a01b031663c5bf0e9d84670de0b6b3a764000002303089898960405160240161109d939291906113ac565b60408051601f198184030181529181526020820180516001600160e01b0316632a77b18b60e01b1790525160e086901b6001600160e01b03191681526110e994939291906004016114e1565b600060405180830381600087803b15801561110357600080fd5b505af1158015611117573d6000803e3d6000fd5b505050506040513d6000823e601f3d908101601f1916820160405261113f91908101906111f8565b95945050505050565b6000815183511461115b5750600061116f565b818051906020012083805190602001201490505b92915050565b600060208284031215611186578081fd5b8135611191816115bd565b9392505050565b6000806000606084860312156111ac578182fd5b83356111b7816115bd565b925060208401356111c7816115bd565b929592945050506040919091013590565b6000602082840312156111e9578081fd5b81518015158114611191578182fd5b600060208284031215611209578081fd5b815167ffffffffffffffff80821115611220578283fd5b818401915084601f830112611233578283fd5b815181811115611241578384fd5b604051601f8201601f191681016020018381118282101715611261578586fd5b604052818152838201602001871015611278578485fd5b611289826020830160208701611591565b9695505050505050565b600080604083850312156112a5578182fd5b82356112b0816115bd565b915060208301356112c0816115bd565b809150509250929050565b6000806000606084860312156111ac578283fd5b600080600080608085870312156112f4578081fd5b84356112ff816115bd565b9350602085013592506040850135611316816115bd565b91506060850135611326816115bd565b939692955090935050565b600060208284031215611342578081fd5b5051919050565b6000806040838503121561135b578182fd5b505080516020909101519092909150565b60008151808452611384816020860160208601611591565b601f01601f19169290920160200192915050565b6001600160a01b0391909116815260200190565b6001600160a01b039384168152919092166020820152604081019190915260600190565b6001600160a01b03929092168252602082015260400190565b600060208252611191602083018461136c565b6001600160a01b039485168152602081019390935292166040820152606081019190915260800190565b60208082526026908201527f4f776e61626c653a206e6577206f776e657220697320746865207a65726f206160408201526564647265737360d01b606082015260800190565b60208082526017908201527f6661696c656420657865637574654f7065726174696f6e000000000000000000604082015260600190565b6020808252818101527f4f776e61626c653a2063616c6c6572206973206e6f7420746865206f776e6572604082015260600190565b90815260200190565b8481526001600160a01b0384811660208301528316604082015260a060608201819052600090820181905260c0608083018190526112899083018461136c565b908152604060208201819052600490820152633637b0b760e11b606082015260800190565b908152604060208201819052600590820152643a37b5b2b760d91b606082015260800190565b908152604060208201819052600490820152635553444360e01b606082015260800190565b60005b838110156115ac578181015183820152602001611594565b8381111561039e5750506000910152565b6001600160a01b03811681146115d257600080fd5b5056feea36f6eac8bc154e1d3c981736bc7d5cabf77764b782cdd8735ec9affa5815c6a2646970667358221220d4815f5b34651ff9e6dcd09faf538c0e5c8f461d11fb31598b85195c4abf992d64736f6c634300060c0033",
  "bytecodeSha1": "061a0ab40a608fa4b73de0e870caa90720d5301a",
  "compiler": {
    "evm_version": "istanbul",
    "optimizer": {
      "enabled": true,
      "runs": 200
    },
    "version": "0.6.12"
  },
  "contractName": "BZxFlashLoaner",
  "language": "Solidity",
  "natspec": {
    "kind": "dev",
    "methods": {
      "owner()": {
        "details": "Returns the address of the current owner."
      },
      "renounceOwnership()": {
        "details": "Leaves the contract without owner. It will not be possible to call `onlyOwner` functions anymore. Can only be called by the current owner. NOTE: Renouncing ownership will leave the contract without an owner, thereby removing any functionality that is only available to the owner."
      },
      "transferOwnership(address)": {
        "details": "Transfers ownership of the contract to a new account (`newOwner`). Can only be called by the current owner."
      }
    },
    "version": 1
  },
  "opcodes": "PUSH1 0x80 PUSH1 0x40 MSTORE PUSH1 0x4 CALLDATASIZE LT PUSH2 0x9C JUMPI PUSH1 0x0 CALLDATALOAD PUSH1 0xE0 SHR DUP1 PUSH4 0x5BA29ED2 GT PUSH2 0x64 JUMPI DUP1 PUSH4 0x5BA29ED2 EQ PUSH2 0x143 JUMPI DUP1 PUSH4 0x715018A6 EQ PUSH2 0x163 JUMPI DUP1 PUSH4 0x89A30271 EQ PUSH2 0x178 JUMPI DUP1 PUSH4 0x8DA5CB5B EQ PUSH2 0x18D JUMPI DUP1 PUSH4 0xE56C174B EQ PUSH2 0x1A2 JUMPI DUP1 PUSH4 0xF2FDE38B EQ PUSH2 0x1CF JUMPI PUSH2 0x9C JUMP JUMPDEST DUP1 PUSH4 0x1E992F5 EQ PUSH2 0xA1 JUMPI DUP1 PUSH4 0x1878D1F1 EQ PUSH2 0xB6 JUMPI DUP1 PUSH4 0x2A77B18B EQ PUSH2 0xE1 JUMPI DUP1 PUSH4 0x32D85333 EQ PUSH2 0x10E JUMPI DUP1 PUSH4 0x4FB7DB3F EQ PUSH2 0x12E JUMPI JUMPDEST PUSH1 0x0 DUP1 REVERT JUMPDEST PUSH2 0xB4 PUSH2 0xAF CALLDATASIZE PUSH1 0x4 PUSH2 0x1293 JUMP JUMPDEST PUSH2 0x1EF JUMP JUMPDEST STOP JUMPDEST CALLVALUE DUP1 ISZERO PUSH2 0xC2 JUMPI PUSH1 0x0 DUP1 REVERT JUMPDEST POP PUSH2 0xCB PUSH2 0x3A4 JUMP JUMPDEST PUSH1 0x40 MLOAD PUSH2 0xD8 SWAP2 SWAP1 PUSH2 0x1398 JUMP JUMPDEST PUSH1 0x40 MLOAD DUP1 SWAP2 SUB SWAP1 RETURN JUMPDEST CALLVALUE DUP1 ISZERO PUSH2 0xED JUMPI PUSH1 0x0 DUP1 REVERT JUMPDEST POP PUSH2 0x101 PUSH2 0xFC CALLDATASIZE PUSH1 0x4 PUSH2 0x1198 JUMP JUMPDEST PUSH2 0x3BC JUMP JUMPDEST PUSH1 0x40 MLOAD PUSH2 0xD8 SWAP2 SWAP1 PUSH2 0x13E9 JUMP JUMPDEST CALLVALUE DUP1 ISZERO PUSH2 0x11A JUMPI PUSH1 0x0 DUP1 REVERT JUMPDEST POP PUSH2 0xB4 PUSH2 0x129 CALLDATASIZE PUSH1 0x4 PUSH2 0x1198 JUMP JUMPDEST PUSH2 0xA75 JUMP JUMPDEST CALLVALUE DUP1 ISZERO PUSH2 0x13A JUMPI PUSH1 0x0 DUP1 REVERT JUMPDEST POP PUSH2 0xCB PUSH2 0xC42 JUMP JUMPDEST CALLVALUE DUP1 ISZERO PUSH2 0x14F JUMPI PUSH1 0x0 DUP1 REVERT JUMPDEST POP PUSH2 0xB4 PUSH2 0x15E CALLDATASIZE PUSH1 0x4 PUSH2 0x12DF JUMP JUMPDEST PUSH2 0xC51 JUMP JUMPDEST CALLVALUE DUP1 ISZERO PUSH2 0x16F JUMPI PUSH1 0x0 DUP1 REVERT JUMPDEST POP PUSH2 0xB4 PUSH2 0xDF2 JUMP JUMPDEST CALLVALUE DUP1 ISZERO PUSH2 0x184 JUMPI PUSH1 0x0 DUP1 REVERT JUMPDEST POP PUSH2 0xCB PUSH2 0xE71 JUMP JUMPDEST CALLVALUE DUP1 ISZERO PUSH2 0x199 JUMPI PUSH1 0x0 DUP1 REVERT JUMPDEST POP PUSH2 0xCB PUSH2 0xE89 JUMP JUMPDEST CALLVALUE DUP1 ISZERO PUSH2 0x1AE JUMPI PUSH1 0x0 DUP1 REVERT JUMPDEST POP PUSH2 0x1C2 PUSH2 0x1BD CALLDATASIZE PUSH1 0x4 PUSH2 0x12CB JUMP JUMPDEST PUSH2 0xE98 JUMP JUMPDEST PUSH1 0x40 MLOAD PUSH2 0xD8 SWAP2 SWAP1 PUSH2 0x14D8 JUMP JUMPDEST CALLVALUE DUP1 ISZERO PUSH2 0x1DB JUMPI PUSH1 0x0 DUP1 REVERT JUMPDEST POP PUSH2 0xB4 PUSH2 0x1EA CALLDATASIZE PUSH1 0x4 PUSH2 0x1175 JUMP JUMPDEST PUSH2 0xF2B JUMP JUMPDEST PUSH1 0x1 SLOAD PUSH1 0x40 MLOAD PUSH4 0x809A9E55 PUSH1 0xE0 SHL DUP2 MSTORE PUSH1 0x0 SWAP2 PUSH1 0x1 PUSH1 0x1 PUSH1 0xA0 SHL SUB AND SWAP1 PUSH4 0x809A9E55 SWAP1 PUSH2 0x238 SWAP1 PUSH20 0xEEEEEEEEEEEEEEEEEEEEEEEEEEEEEEEEEEEEEEEE SWAP1 DUP8 SWAP1 CALLVALUE SWAP1 PUSH1 0x4 ADD PUSH2 0x13AC JUMP JUMPDEST PUSH1 0x40 DUP1 MLOAD DUP1 DUP4 SUB DUP2 DUP7 DUP1 EXTCODESIZE ISZERO DUP1 ISZERO PUSH2 0x24F JUMPI PUSH1 0x0 DUP1 REVERT JUMPDEST POP GAS STATICCALL ISZERO DUP1 ISZERO PUSH2 0x263 JUMPI RETURNDATASIZE PUSH1 0x0 DUP1 RETURNDATACOPY RETURNDATASIZE PUSH1 0x0 REVERT JUMPDEST POP POP POP POP PUSH1 0x40 MLOAD RETURNDATASIZE PUSH1 0x1F NOT PUSH1 0x1F DUP3 ADD AND DUP3 ADD DUP1 PUSH1 0x40 MSTORE POP DUP2 ADD SWAP1 PUSH2 0x287 SWAP2 SWAP1 PUSH2 0x1349 JUMP JUMPDEST PUSH1 0x1 SLOAD PUSH1 0x40 MLOAD PUSH4 0x3D15022B PUSH1 0xE1 SHL DUP2 MSTORE SWAP2 SWAP4 POP PUSH1 0x0 SWAP3 POP PUSH1 0x1 PUSH1 0x1 PUSH1 0xA0 SHL SUB AND SWAP1 PUSH4 0x7A2A0456 SWAP1 CALLVALUE SWAP1 PUSH2 0x2C0 SWAP1 DUP9 SWAP1 DUP8 SWAP1 PUSH1 0x4 ADD PUSH2 0x13D0 JUMP JUMPDEST PUSH1 0x20 PUSH1 0x40 MLOAD DUP1 DUP4 SUB DUP2 DUP6 DUP9 DUP1 EXTCODESIZE ISZERO DUP1 ISZERO PUSH2 0x2D9 JUMPI PUSH1 0x0 DUP1 REVERT JUMPDEST POP GAS CALL ISZERO DUP1 ISZERO PUSH2 0x2ED JUMPI RETURNDATASIZE PUSH1 0x0 DUP1 RETURNDATACOPY RETURNDATASIZE PUSH1 0x0 REVERT JUMPDEST POP POP POP POP POP PUSH1 0x40 MLOAD RETURNDATASIZE PUSH1 0x1F NOT PUSH1 0x1F DUP3 ADD AND DUP3 ADD DUP1 PUSH1 0x40 MSTORE POP DUP2 ADD SWAP1 PUSH2 0x312 SWAP2 SWAP1 PUSH2 0x1331 JUMP JUMPDEST PUSH1 0x40 MLOAD PUSH4 0xA9059CBB PUSH1 0xE0 SHL DUP2 MSTORE SWAP1 SWAP2 POP PUSH1 0x1 PUSH1 0x1 PUSH1 0xA0 SHL SUB DUP6 AND SWAP1 PUSH4 0xA9059CBB SWAP1 PUSH2 0x343 SWAP1 DUP7 SWAP1 DUP6 SWAP1 PUSH1 0x4 ADD PUSH2 0x13D0 JUMP JUMPDEST PUSH1 0x20 PUSH1 0x40 MLOAD DUP1 DUP4 SUB DUP2 PUSH1 0x0 DUP8 DUP1 EXTCODESIZE ISZERO DUP1 ISZERO PUSH2 0x35D JUMPI PUSH1 0x0 DUP1 REVERT JUMPDEST POP GAS CALL ISZERO DUP1 ISZERO PUSH2 0x371 JUMPI RETURNDATASIZE PUSH1 0x0 DUP1 RETURNDATACOPY RETURNDATASIZE PUSH1 0x0 REVERT JUMPDEST POP POP POP POP PUSH1 0x40 MLOAD RETURNDATASIZE PUSH1 0x1F NOT PUSH1 0x1F DUP3 ADD AND DUP3 ADD DUP1 PUSH1 0x40 MSTORE POP DUP2 ADD SWAP1 PUSH2 0x395 SWAP2 SWAP1 PUSH2 0x11D8 JUMP JUMPDEST PUSH2 0x39E JUMPI PUSH1 0x0 DUP1 REVERT JUMPDEST POP POP POP POP JUMP JUMPDEST PUSH20 0xEEEEEEEEEEEEEEEEEEEEEEEEEEEEEEEEEEEEEEEE DUP2 JUMP JUMPDEST PUSH1 0x60 PUSH32 0xC2B282E2BFA85928B833B779034DA20BE2D6C7536EF9AFD46B64F327D8ECDC8B DUP5 DUP5 DUP5 PUSH1 0x40 MLOAD PUSH2 0x3F1 SWAP4 SWAP3 SWAP2 SWAP1 PUSH2 0x13AC JUMP JUMPDEST PUSH1 0x40 MLOAD DUP1 SWAP2 SUB SWAP1 LOG1 PUSH1 0x40 MLOAD PUSH4 0x70A08231 PUSH1 0xE0 SHL DUP2 MSTORE PUSH1 0x0 DUP1 MLOAD PUSH1 0x20 PUSH2 0x15D6 DUP4 CODECOPY DUP2 MLOAD SWAP2 MSTORE SWAP1 PUSH20 0xA0B86991C6218B36C1D19D4A2E9EB0CE3606EB48 SWAP1 PUSH4 0x70A08231 SWAP1 PUSH2 0x440 SWAP1 ADDRESS SWAP1 PUSH1 0x4 ADD PUSH2 0x1398 JUMP JUMPDEST PUSH1 0x20 PUSH1 0x40 MLOAD DUP1 DUP4 SUB DUP2 DUP7 DUP1 EXTCODESIZE ISZERO DUP1 ISZERO PUSH2 0x458 JUMPI PUSH1 0x0 DUP1 REVERT JUMPDEST POP GAS STATICCALL ISZERO DUP1 ISZERO PUSH2 0x46C JUMPI RETURNDATASIZE PUSH1 0x0 DUP1 RETURNDATACOPY RETURNDATASIZE PUSH1 0x0 REVERT JUMPDEST POP POP POP POP PUSH1 0x40 MLOAD RETURNDATASIZE PUSH1 0x1F NOT PUSH1 0x1F DUP3 ADD AND DUP3 ADD DUP1 PUSH1 0x40 MSTORE POP DUP2 ADD SWAP1 PUSH2 0x490 SWAP2 SWAP1 PUSH2 0x1331 JUMP JUMPDEST PUSH1 0x40 MLOAD PUSH2 0x49D SWAP2 SWAP1 PUSH2 0x156C JUMP JUMPDEST PUSH1 0x40 MLOAD DUP1 SWAP2 SUB SWAP1 LOG1 PUSH1 0x40 MLOAD PUSH4 0x70A08231 PUSH1 0xE0 SHL DUP2 MSTORE PUSH1 0x0 DUP1 MLOAD PUSH1 0x20 PUSH2 0x15D6 DUP4 CODECOPY DUP2 MLOAD SWAP2 MSTORE SWAP1 PUSH1 0x1 PUSH1 0x1 PUSH1 0xA0 SHL SUB DUP7 AND SWAP1 PUSH4 0x70A08231 SWAP1 PUSH2 0x4E1 SWAP1 ADDRESS SWAP1 PUSH1 0x4 ADD PUSH2 0x1398 JUMP JUMPDEST PUSH1 0x20 PUSH1 0x40 MLOAD DUP1 DUP4 SUB DUP2 DUP7 DUP1 EXTCODESIZE ISZERO DUP1 ISZERO PUSH2 0x4F9 JUMPI PUSH1 0x0 DUP1 REVERT JUMPDEST POP GAS STATICCALL ISZERO DUP1 ISZERO PUSH2 0x50D JUMPI RETURNDATASIZE PUSH1 0x0 DUP1 RETURNDATACOPY RETURNDATASIZE PUSH1 0x0 REVERT JUMPDEST POP POP POP POP PUSH1 0x40 MLOAD RETURNDATASIZE PUSH1 0x1F NOT PUSH1 0x1F DUP3 ADD AND DUP3 ADD DUP1 PUSH1 0x40 MSTORE POP DUP2 ADD SWAP1 PUSH2 0x531 SWAP2 SWAP1 PUSH2 0x1331 JUMP JUMPDEST PUSH1 0x40 MLOAD PUSH2 0x53E SWAP2 SWAP1 PUSH2 0x1521 JUMP JUMPDEST PUSH1 0x40 MLOAD DUP1 SWAP2 SUB SWAP1 LOG1 PUSH1 0x1 SLOAD PUSH1 0x40 MLOAD PUSH4 0x95EA7B3 PUSH1 0xE0 SHL DUP2 MSTORE PUSH20 0xA0B86991C6218B36C1D19D4A2E9EB0CE3606EB48 SWAP2 PUSH4 0x95EA7B3 SWAP2 PUSH2 0x58C SWAP2 PUSH1 0x1 PUSH1 0x1 PUSH1 0xA0 SHL SUB AND SWAP1 PUSH1 0x0 NOT SWAP1 PUSH1 0x4 ADD PUSH2 0x13D0 JUMP JUMPDEST PUSH1 0x20 PUSH1 0x40 MLOAD DUP1 DUP4 SUB DUP2 PUSH1 0x0 DUP8 DUP1 EXTCODESIZE ISZERO DUP1 ISZERO PUSH2 0x5A6 JUMPI PUSH1 0x0 DUP1 REVERT JUMPDEST POP GAS CALL ISZERO DUP1 ISZERO PUSH2 0x5BA JUMPI RETURNDATASIZE PUSH1 0x0 DUP1 RETURNDATACOPY RETURNDATASIZE PUSH1 0x0 REVERT JUMPDEST POP POP POP POP PUSH1 0x40 MLOAD RETURNDATASIZE PUSH1 0x1F NOT PUSH1 0x1F DUP3 ADD AND DUP3 ADD DUP1 PUSH1 0x40 MSTORE POP DUP2 ADD SWAP1 PUSH2 0x5DE SWAP2 SWAP1 PUSH2 0x11D8 JUMP JUMPDEST POP PUSH1 0x1 SLOAD PUSH1 0x40 MLOAD PUSH4 0x95EA7B3 PUSH1 0xE0 SHL DUP2 MSTORE PUSH1 0x1 PUSH1 0x1 PUSH1 0xA0 SHL SUB DUP7 DUP2 AND SWAP3 PUSH4 0x95EA7B3 SWAP3 PUSH2 0x615 SWAP3 SWAP1 SWAP2 AND SWAP1 PUSH1 0x0 NOT SWAP1 PUSH1 0x4 ADD PUSH2 0x13D0 JUMP JUMPDEST PUSH1 0x20 PUSH1 0x40 MLOAD DUP1 DUP4 SUB DUP2 PUSH1 0x0 DUP8 DUP1 EXTCODESIZE ISZERO DUP1 ISZERO PUSH2 0x62F JUMPI PUSH1 0x0 DUP1 REVERT JUMPDEST POP GAS CALL ISZERO DUP1 ISZERO PUSH2 0x643 JUMPI RETURNDATASIZE PUSH1 0x0 DUP1 RETURNDATACOPY RETURNDATASIZE PUSH1 0x0 REVERT JUMPDEST POP POP POP POP PUSH1 0x40 MLOAD RETURNDATASIZE PUSH1 0x1F NOT PUSH1 0x1F DUP3 ADD AND DUP3 ADD DUP1 PUSH1 0x40 MSTORE POP DUP2 ADD SWAP1 PUSH2 0x667 SWAP2 SWAP1 PUSH2 0x11D8 JUMP JUMPDEST POP PUSH1 0x1 SLOAD PUSH1 0x40 MLOAD PUSH4 0x809A9E55 PUSH1 0xE0 SHL DUP2 MSTORE PUSH1 0x0 SWAP2 PUSH8 0xDE0B6B3A7640000 DUP6 MUL SWAP2 PUSH1 0x1 PUSH1 0x1 PUSH1 0xA0 SHL SUB SWAP1 SWAP2 AND SWAP1 PUSH4 0x809A9E55 SWAP1 PUSH2 0x6BF SWAP1 DUP10 SWAP1 PUSH20 0xA0B86991C6218B36C1D19D4A2E9EB0CE3606EB48 SWAP1 DUP7 SWAP1 PUSH1 0x4 ADD PUSH2 0x13AC JUMP JUMPDEST PUSH1 0x40 DUP1 MLOAD DUP1 DUP4 SUB DUP2 DUP7 DUP1 EXTCODESIZE ISZERO DUP1 ISZERO PUSH2 0x6D6 JUMPI PUSH1 0x0 DUP1 REVERT JUMPDEST POP GAS STATICCALL ISZERO DUP1 ISZERO PUSH2 0x6EA JUMPI RETURNDATASIZE PUSH1 0x0 DUP1 RETURNDATACOPY RETURNDATASIZE PUSH1 0x0 REVERT JUMPDEST POP POP POP POP PUSH1 0x40 MLOAD RETURNDATASIZE PUSH1 0x1F NOT PUSH1 0x1F DUP3 ADD AND DUP3 ADD DUP1 PUSH1 0x40 MSTORE POP DUP2 ADD SWAP1 PUSH2 0x70E SWAP2 SWAP1 PUSH2 0x1349 JUMP JUMPDEST PUSH1 0x1 SLOAD PUSH1 0x40 MLOAD PUSH4 0x7409E2EB PUSH1 0xE0 SHL DUP2 MSTORE SWAP2 SWAP5 POP PUSH1 0x0 SWAP3 POP PUSH1 0x1 PUSH1 0x1 PUSH1 0xA0 SHL SUB AND SWAP1 PUSH4 0x7409E2EB SWAP1 PUSH2 0x75D SWAP1 DUP11 SWAP1 DUP7 SWAP1 PUSH20 0xA0B86991C6218B36C1D19D4A2E9EB0CE3606EB48 SWAP1 DUP10 SWAP1 PUSH1 0x4 ADD PUSH2 0x13FC JUMP JUMPDEST PUSH1 0x20 PUSH1 0x40 MLOAD DUP1 DUP4 SUB DUP2 PUSH1 0x0 DUP8 DUP1 EXTCODESIZE ISZERO DUP1 ISZERO PUSH2 0x777 JUMPI PUSH1 0x0 DUP1 REVERT JUMPDEST POP GAS CALL ISZERO DUP1 ISZERO PUSH2 0x78B JUMPI RETURNDATASIZE PUSH1 0x0 DUP1 RETURNDATACOPY RETURNDATASIZE PUSH1 0x0 REVERT JUMPDEST POP POP POP POP PUSH1 0x40 MLOAD RETURNDATASIZE PUSH1 0x1F NOT PUSH1 0x1F DUP3 ADD AND DUP3 ADD DUP1 PUSH1 0x40 MSTORE POP DUP2 ADD SWAP1 PUSH2 0x7AF SWAP2 SWAP1 PUSH2 0x1331 JUMP JUMPDEST PUSH1 0x1 SLOAD PUSH1 0x40 MLOAD PUSH4 0x809A9E55 PUSH1 0xE0 SHL DUP2 MSTORE PUSH3 0xF4240 DUP9 MUL SWAP5 POP SWAP2 SWAP3 POP PUSH1 0x1 PUSH1 0x1 PUSH1 0xA0 SHL SUB AND SWAP1 PUSH4 0x809A9E55 SWAP1 PUSH2 0x800 SWAP1 PUSH20 0xA0B86991C6218B36C1D19D4A2E9EB0CE3606EB48 SWAP1 DUP12 SWAP1 DUP8 SWAP1 PUSH1 0x4 ADD PUSH2 0x13AC JUMP JUMPDEST PUSH1 0x40 DUP1 MLOAD DUP1 DUP4 SUB DUP2 DUP7 DUP1 EXTCODESIZE ISZERO DUP1 ISZERO PUSH2 0x817 JUMPI PUSH1 0x0 DUP1 REVERT JUMPDEST POP GAS STATICCALL ISZERO DUP1 ISZERO PUSH2 0x82B JUMPI RETURNDATASIZE PUSH1 0x0 DUP1 RETURNDATACOPY RETURNDATASIZE PUSH1 0x0 REVERT JUMPDEST POP POP POP POP PUSH1 0x40 MLOAD RETURNDATASIZE PUSH1 0x1F NOT PUSH1 0x1F DUP3 ADD AND DUP3 ADD DUP1 PUSH1 0x40 MSTORE POP DUP2 ADD SWAP1 PUSH2 0x84F SWAP2 SWAP1 PUSH2 0x1349 JUMP JUMPDEST PUSH1 0x1 SLOAD PUSH1 0x40 MLOAD PUSH4 0x7409E2EB PUSH1 0xE0 SHL DUP2 MSTORE SWAP2 SWAP6 POP PUSH1 0x1 PUSH1 0x1 PUSH1 0xA0 SHL SUB AND SWAP2 POP PUSH4 0x7409E2EB SWAP1 PUSH2 0x89B SWAP1 PUSH20 0xA0B86991C6218B36C1D19D4A2E9EB0CE3606EB48 SWAP1 DUP7 SWAP1 DUP13 SWAP1 DUP10 SWAP1 PUSH1 0x4 ADD PUSH2 0x13FC JUMP JUMPDEST PUSH1 0x20 PUSH1 0x40 MLOAD DUP1 DUP4 SUB DUP2 PUSH1 0x0 DUP8 DUP1 EXTCODESIZE ISZERO DUP1 ISZERO PUSH2 0x8B5 JUMPI PUSH1 0x0 DUP1 REVERT JUMPDEST POP GAS CALL ISZERO DUP1 ISZERO PUSH2 0x8C9 JUMPI RETURNDATASIZE PUSH1 0x0 DUP1 RETURNDATACOPY RETURNDATASIZE PUSH1 0x0 REVERT JUMPDEST POP POP POP POP PUSH1 0x40 MLOAD RETURNDATASIZE PUSH1 0x1F NOT PUSH1 0x1F DUP3 ADD AND DUP3 ADD DUP1 PUSH1 0x40 MSTORE POP DUP2 ADD SWAP1 PUSH2 0x8ED SWAP2 SWAP1 PUSH2 0x1331 JUMP JUMPDEST PUSH1 0x40 MLOAD PUSH4 0x70A08231 PUSH1 0xE0 SHL DUP2 MSTORE SWAP1 SWAP2 POP PUSH1 0x0 DUP1 MLOAD PUSH1 0x20 PUSH2 0x15D6 DUP4 CODECOPY DUP2 MLOAD SWAP2 MSTORE SWAP1 PUSH20 0xA0B86991C6218B36C1D19D4A2E9EB0CE3606EB48 SWAP1 PUSH4 0x70A08231 SWAP1 PUSH2 0x937 SWAP1 ADDRESS SWAP1 PUSH1 0x4 ADD PUSH2 0x1398 JUMP JUMPDEST PUSH1 0x20 PUSH1 0x40 MLOAD DUP1 DUP4 SUB DUP2 DUP7 DUP1 EXTCODESIZE ISZERO DUP1 ISZERO PUSH2 0x94F JUMPI PUSH1 0x0 DUP1 REVERT JUMPDEST POP GAS STATICCALL ISZERO DUP1 ISZERO PUSH2 0x963 JUMPI RETURNDATASIZE PUSH1 0x0 DUP1 RETURNDATACOPY RETURNDATASIZE PUSH1 0x0 REVERT JUMPDEST POP POP POP POP PUSH1 0x40 MLOAD RETURNDATASIZE PUSH1 0x1F NOT PUSH1 0x1F DUP3 ADD AND DUP3 ADD DUP1 PUSH1 0x40 MSTORE POP DUP2 ADD SWAP1 PUSH2 0x987 SWAP2 SWAP1 PUSH2 0x1331 JUMP JUMPDEST PUSH1 0x40 MLOAD PUSH2 0x994 SWAP2 SWAP1 PUSH2 0x156C JUMP JUMPDEST PUSH1 0x40 MLOAD DUP1 SWAP2 SUB SWAP1 LOG1 PUSH1 0x40 MLOAD PUSH4 0x70A08231 PUSH1 0xE0 SHL DUP2 MSTORE PUSH1 0x0 DUP1 MLOAD PUSH1 0x20 PUSH2 0x15D6 DUP4 CODECOPY DUP2 MLOAD SWAP2 MSTORE SWAP1 PUSH1 0x1 PUSH1 0x1 PUSH1 0xA0 SHL SUB DUP10 AND SWAP1 PUSH4 0x70A08231 SWAP1 PUSH2 0x9D8 SWAP1 ADDRESS SWAP1 PUSH1 0x4 ADD PUSH2 0x1398 JUMP JUMPDEST PUSH1 0x20 PUSH1 0x40 MLOAD DUP1 DUP4 SUB DUP2 DUP7 DUP1 EXTCODESIZE ISZERO DUP1 ISZERO PUSH2 0x9F0 JUMPI PUSH1 0x0 DUP1 REVERT JUMPDEST POP GAS STATICCALL ISZERO DUP1 ISZERO PUSH2 0xA04 JUMPI RETURNDATASIZE PUSH1 0x0 DUP1 RETURNDATACOPY RETURNDATASIZE PUSH1 0x0 REVERT JUMPDEST POP POP POP POP PUSH1 0x40 MLOAD RETURNDATASIZE PUSH1 0x1F NOT PUSH1 0x1F DUP3 ADD AND DUP3 ADD DUP1 PUSH1 0x40 MSTORE POP DUP2 ADD SWAP1 PUSH2 0xA28 SWAP2 SWAP1 PUSH2 0x1331 JUMP JUMPDEST PUSH1 0x40 MLOAD PUSH2 0xA35 SWAP2 SWAP1 PUSH2 0x1521 JUMP JUMPDEST PUSH1 0x40 MLOAD DUP1 SWAP2 SUB SWAP1 LOG1 PUSH2 0xA52 DUP8 DUP8 DUP8 PUSH8 0xDE0B6B3A7640000 MUL PUSH2 0xFE1 JUMP JUMPDEST POP POP PUSH1 0x40 DUP1 MLOAD DUP1 DUP3 ADD SWAP1 SWAP2 MSTORE PUSH1 0x1 DUP2 MSTORE PUSH1 0x31 PUSH1 0xF8 SHL PUSH1 0x20 DUP3 ADD MSTORE SWAP6 SWAP5 POP POP POP POP POP JUMP JUMPDEST PUSH2 0xA7D PUSH2 0x1061 JUMP JUMPDEST PUSH1 0x0 SLOAD PUSH1 0x1 PUSH1 0x1 PUSH1 0xA0 SHL SUB SWAP1 DUP2 AND SWAP2 AND EQ PUSH2 0xAB3 JUMPI PUSH1 0x40 MLOAD PUSH3 0x461BCD PUSH1 0xE5 SHL DUP2 MSTORE PUSH1 0x4 ADD PUSH2 0xAAA SWAP1 PUSH2 0x14A3 JUMP JUMPDEST PUSH1 0x40 MLOAD DUP1 SWAP2 SUB SWAP1 REVERT JUMPDEST PUSH1 0x60 PUSH1 0x0 DUP1 MLOAD PUSH1 0x20 PUSH2 0x15D6 DUP4 CODECOPY DUP2 MLOAD SWAP2 MSTORE DUP5 PUSH1 0x1 PUSH1 0x1 PUSH1 0xA0 SHL SUB AND PUSH4 0x70A08231 ADDRESS PUSH1 0x40 MLOAD DUP3 PUSH4 0xFFFFFFFF AND PUSH1 0xE0 SHL DUP2 MSTORE PUSH1 0x4 ADD PUSH2 0xAF0 SWAP2 SWAP1 PUSH2 0x1398 JUMP JUMPDEST PUSH1 0x20 PUSH1 0x40 MLOAD DUP1 DUP4 SUB DUP2 DUP7 DUP1 EXTCODESIZE ISZERO DUP1 ISZERO PUSH2 0xB08 JUMPI PUSH1 0x0 DUP1 REVERT JUMPDEST POP GAS STATICCALL ISZERO DUP1 ISZERO PUSH2 0xB1C JUMPI RETURNDATASIZE PUSH1 0x0 DUP1 RETURNDATACOPY RETURNDATASIZE PUSH1 0x0 REVERT JUMPDEST POP POP POP POP PUSH1 0x40 MLOAD RETURNDATASIZE PUSH1 0x1F NOT PUSH1 0x1F DUP3 ADD AND DUP3 ADD DUP1 PUSH1 0x40 MSTORE POP DUP2 ADD SWAP1 PUSH2 0xB40 SWAP2 SWAP1 PUSH2 0x1331 JUMP JUMPDEST PUSH1 0x40 MLOAD PUSH2 0xB4D SWAP2 SWAP1 PUSH2 0x1546 JUMP JUMPDEST PUSH1 0x40 MLOAD DUP1 SWAP2 SUB SWAP1 LOG1 PUSH2 0xB60 DUP5 DUP5 DUP5 PUSH2 0x1065 JUMP JUMPDEST SWAP1 POP PUSH1 0x0 DUP1 MLOAD PUSH1 0x20 PUSH2 0x15D6 DUP4 CODECOPY DUP2 MLOAD SWAP2 MSTORE DUP5 PUSH1 0x1 PUSH1 0x1 PUSH1 0xA0 SHL SUB AND PUSH4 0x70A08231 ADDRESS PUSH1 0x40 MLOAD DUP3 PUSH4 0xFFFFFFFF AND PUSH1 0xE0 SHL DUP2 MSTORE PUSH1 0x4 ADD PUSH2 0xB9D SWAP2 SWAP1 PUSH2 0x1398 JUMP JUMPDEST PUSH1 0x20 PUSH1 0x40 MLOAD DUP1 DUP4 SUB DUP2 DUP7 DUP1 EXTCODESIZE ISZERO DUP1 ISZERO PUSH2 0xBB5 JUMPI PUSH1 0x0 DUP1 REVERT JUMPDEST POP GAS STATICCALL ISZERO DUP1 ISZERO PUSH2 0xBC9 JUMPI RETURNDATASIZE PUSH1 0x0 DUP1 RETURNDATACOPY RETURNDATASIZE PUSH1 0x0 REVERT JUMPDEST POP POP POP POP PUSH1 0x40 MLOAD RETURNDATASIZE PUSH1 0x1F NOT PUSH1 0x1F DUP3 ADD AND DUP3 ADD DUP1 PUSH1 0x40 MSTORE POP DUP2 ADD SWAP1 PUSH2 0xBED SWAP2 SWAP1 PUSH2 0x1331 JUMP JUMPDEST PUSH1 0x40 MLOAD PUSH2 0xBFA SWAP2 SWAP1 PUSH2 0x1546 JUMP JUMPDEST PUSH1 0x40 MLOAD DUP1 SWAP2 SUB SWAP1 LOG1 PUSH2 0xC25 PUSH1 0x40 MLOAD DUP1 PUSH1 0x40 ADD PUSH1 0x40 MSTORE DUP1 PUSH1 0x1 DUP2 MSTORE PUSH1 0x20 ADD PUSH1 0x31 PUSH1 0xF8 SHL DUP2 MSTORE POP DUP3 PUSH2 0x1148 JUMP JUMPDEST ISZERO PUSH2 0x39E JUMPI PUSH1 0x40 MLOAD PUSH3 0x461BCD PUSH1 0xE5 SHL DUP2 MSTORE PUSH1 0x4 ADD PUSH2 0xAAA SWAP1 PUSH2 0x146C JUMP JUMPDEST PUSH1 0x1 SLOAD PUSH1 0x1 PUSH1 0x1 PUSH1 0xA0 SHL SUB AND DUP2 JUMP JUMPDEST PUSH1 0x1 SLOAD PUSH1 0x40 MLOAD PUSH4 0x809A9E55 PUSH1 0xE0 SHL DUP2 MSTORE PUSH1 0x0 SWAP2 PUSH1 0x1 PUSH1 0x1 PUSH1 0xA0 SHL SUB AND SWAP1 PUSH4 0x809A9E55 SWAP1 PUSH2 0xC86 SWAP1 DUP9 SWAP1 DUP8 SWAP1 DUP10 SWAP1 PUSH1 0x4 ADD PUSH2 0x13AC JUMP JUMPDEST PUSH1 0x40 DUP1 MLOAD DUP1 DUP4 SUB DUP2 DUP7 DUP1 EXTCODESIZE ISZERO DUP1 ISZERO PUSH2 0xC9D JUMPI PUSH1 0x0 DUP1 REVERT JUMPDEST POP GAS STATICCALL ISZERO DUP1 ISZERO PUSH2 0xCB1 JUMPI RETURNDATASIZE PUSH1 0x0 DUP1 RETURNDATACOPY RETURNDATASIZE PUSH1 0x0 REVERT JUMPDEST POP POP POP POP PUSH1 0x40 MLOAD RETURNDATASIZE PUSH1 0x1F NOT PUSH1 0x1F DUP3 ADD AND DUP3 ADD DUP1 PUSH1 0x40 MSTORE POP DUP2 ADD SWAP1 PUSH2 0xCD5 SWAP2 SWAP1 PUSH2 0x1349 JUMP JUMPDEST PUSH1 0x1 SLOAD PUSH1 0x40 MLOAD PUSH4 0x95EA7B3 PUSH1 0xE0 SHL DUP2 MSTORE SWAP2 SWAP4 POP PUSH1 0x1 PUSH1 0x1 PUSH1 0xA0 SHL SUB DUP1 DUP10 AND SWAP4 POP PUSH4 0x95EA7B3 SWAP3 PUSH2 0xD0D SWAP3 SWAP1 SWAP2 AND SWAP1 DUP9 SWAP1 PUSH1 0x4 ADD PUSH2 0x13D0 JUMP JUMPDEST PUSH1 0x20 PUSH1 0x40 MLOAD DUP1 DUP4 SUB DUP2 PUSH1 0x0 DUP8 DUP1 EXTCODESIZE ISZERO DUP1 ISZERO PUSH2 0xD27 JUMPI PUSH1 0x0 DUP1 REVERT JUMPDEST POP GAS CALL ISZERO DUP1 ISZERO PUSH2 0xD3B JUMPI RETURNDATASIZE PUSH1 0x0 DUP1 RETURNDATACOPY RETURNDATASIZE PUSH1 0x0 REVERT JUMPDEST POP POP POP POP PUSH1 0x40 MLOAD RETURNDATASIZE PUSH1 0x1F NOT PUSH1 0x1F DUP3 ADD AND DUP3 ADD DUP1 PUSH1 0x40 MSTORE POP DUP2 ADD SWAP1 PUSH2 0xD5F SWAP2 SWAP1 PUSH2 0x11D8 JUMP JUMPDEST POP PUSH1 0x1 SLOAD PUSH1 0x40 MLOAD PUSH4 0x7409E2EB PUSH1 0xE0 SHL DUP2 MSTORE PUSH1 0x0 SWAP2 PUSH1 0x1 PUSH1 0x1 PUSH1 0xA0 SHL SUB AND SWAP1 PUSH4 0x7409E2EB SWAP1 PUSH2 0xD97 SWAP1 DUP10 SWAP1 DUP10 SWAP1 DUP10 SWAP1 DUP9 SWAP1 PUSH1 0x4 ADD PUSH2 0x13FC JUMP JUMPDEST PUSH1 0x20 PUSH1 0x40 MLOAD DUP1 DUP4 SUB DUP2 PUSH1 0x0 DUP8 DUP1 EXTCODESIZE ISZERO DUP1 ISZERO PUSH2 0xDB1 JUMPI PUSH1 0x0 DUP1 REVERT JUMPDEST POP GAS CALL ISZERO DUP1 ISZERO PUSH2 0xDC5 JUMPI RETURNDATASIZE PUSH1 0x0 DUP1 RETURNDATACOPY RETURNDATASIZE PUSH1 0x0 REVERT JUMPDEST POP POP POP POP PUSH1 0x40 MLOAD RETURNDATASIZE PUSH1 0x1F NOT PUSH1 0x1F DUP3 ADD AND DUP3 ADD DUP1 PUSH1 0x40 MSTORE POP DUP2 ADD SWAP1 PUSH2 0xDE9 SWAP2 SWAP1 PUSH2 0x1331 JUMP JUMPDEST POP POP POP POP POP POP POP JUMP JUMPDEST PUSH2 0xDFA PUSH2 0x1061 JUMP JUMPDEST PUSH1 0x0 SLOAD PUSH1 0x1 PUSH1 0x1 PUSH1 0xA0 SHL SUB SWAP1 DUP2 AND SWAP2 AND EQ PUSH2 0xE27 JUMPI PUSH1 0x40 MLOAD PUSH3 0x461BCD PUSH1 0xE5 SHL DUP2 MSTORE PUSH1 0x4 ADD PUSH2 0xAAA SWAP1 PUSH2 0x14A3 JUMP JUMPDEST PUSH1 0x0 DUP1 SLOAD PUSH1 0x40 MLOAD PUSH1 0x1 PUSH1 0x1 PUSH1 0xA0 SHL SUB SWAP1 SWAP2 AND SWAP1 PUSH32 0x8BE0079C531659141344CD1FD0A4F28419497F9722A3DAAFE3B4186F6B6457E0 SWAP1 DUP4 SWAP1 LOG3 PUSH1 0x0 DUP1 SLOAD PUSH1 0x1 PUSH1 0x1 PUSH1 0xA0 SHL SUB NOT AND SWAP1 SSTORE JUMP JUMPDEST PUSH20 0xA0B86991C6218B36C1D19D4A2E9EB0CE3606EB48 DUP2 JUMP JUMPDEST PUSH1 0x0 SLOAD PUSH1 0x1 PUSH1 0x1 PUSH1 0xA0 SHL SUB AND SWAP1 JUMP JUMPDEST PUSH1 0x1 SLOAD PUSH1 0x40 MLOAD PUSH4 0x809A9E55 PUSH1 0xE0 SHL DUP2 MSTORE PUSH1 0x0 SWAP2 DUP3 SWAP2 DUP3 SWAP2 PUSH1 0x1 PUSH1 0x1 PUSH1 0xA0 SHL SUB AND SWAP1 PUSH4 0x809A9E55 SWAP1 PUSH2 0xED1 SWAP1 DUP10 SWAP1 DUP10 SWAP1 DUP10 SWAP1 PUSH1 0x4 ADD PUSH2 0x13AC JUMP JUMPDEST PUSH1 0x40 DUP1 MLOAD DUP1 DUP4 SUB DUP2 DUP7 DUP1 EXTCODESIZE ISZERO DUP1 ISZERO PUSH2 0xEE8 JUMPI PUSH1 0x0 DUP1 REVERT JUMPDEST POP GAS STATICCALL ISZERO DUP1 ISZERO PUSH2 0xEFC JUMPI RETURNDATASIZE PUSH1 0x0 DUP1 RETURNDATACOPY RETURNDATASIZE PUSH1 0x0 REVERT JUMPDEST POP POP POP POP PUSH1 0x40 MLOAD RETURNDATASIZE PUSH1 0x1F NOT PUSH1 0x1F DUP3 ADD AND DUP3 ADD DUP1 PUSH1 0x40 MSTORE POP DUP2 ADD SWAP1 PUSH2 0xF20 SWAP2 SWAP1 PUSH2 0x1349 JUMP JUMPDEST SWAP8 SWAP7 POP POP POP POP POP POP POP JUMP JUMPDEST PUSH2 0xF33 PUSH2 0x1061 JUMP JUMPDEST PUSH1 0x0 SLOAD PUSH1 0x1 PUSH1 0x1 PUSH1 0xA0 SHL SUB SWAP1 DUP2 AND SWAP2 AND EQ PUSH2 0xF60 JUMPI PUSH1 0x40 MLOAD PUSH3 0x461BCD PUSH1 0xE5 SHL DUP2 MSTORE PUSH1 0x4 ADD PUSH2 0xAAA SWAP1 PUSH2 0x14A3 JUMP JUMPDEST PUSH1 0x1 PUSH1 0x1 PUSH1 0xA0 SHL SUB DUP2 AND PUSH2 0xF86 JUMPI PUSH1 0x40 MLOAD PUSH3 0x461BCD PUSH1 0xE5 SHL DUP2 MSTORE PUSH1 0x4 ADD PUSH2 0xAAA SWAP1 PUSH2 0x1426 JUMP JUMPDEST PUSH1 0x0 DUP1 SLOAD PUSH1 0x40 MLOAD PUSH1 0x1 PUSH1 0x1 PUSH1 0xA0 SHL SUB DUP1 DUP6 AND SWAP4 SWAP3 AND SWAP2 PUSH32 0x8BE0079C531659141344CD1FD0A4F28419497F9722A3DAAFE3B4186F6B6457E0 SWAP2 LOG3 PUSH1 0x0 DUP1 SLOAD PUSH1 0x1 PUSH1 0x1 PUSH1 0xA0 SHL SUB NOT AND PUSH1 0x1 PUSH1 0x1 PUSH1 0xA0 SHL SUB SWAP3 SWAP1 SWAP3 AND SWAP2 SWAP1 SWAP2 OR SWAP1 SSTORE JUMP JUMPDEST PUSH1 0x40 MLOAD PUSH4 0xA9059CBB PUSH1 0xE0 SHL DUP2 MSTORE PUSH1 0x1 PUSH1 0x1 PUSH1 0xA0 SHL SUB DUP5 AND SWAP1 PUSH4 0xA9059CBB SWAP1 PUSH2 0x100F SWAP1 DUP6 SWAP1 DUP6 SWAP1 PUSH1 0x4 ADD PUSH2 0x13D0 JUMP JUMPDEST PUSH1 0x20 PUSH1 0x40 MLOAD DUP1 DUP4 SUB DUP2 PUSH1 0x0 DUP8 DUP1 EXTCODESIZE ISZERO DUP1 ISZERO PUSH2 0x1029 JUMPI PUSH1 0x0 DUP1 REVERT JUMPDEST POP GAS CALL ISZERO DUP1 ISZERO PUSH2 0x103D JUMPI RETURNDATASIZE PUSH1 0x0 DUP1 RETURNDATACOPY RETURNDATASIZE PUSH1 0x0 REVERT JUMPDEST POP POP POP POP PUSH1 0x40 MLOAD RETURNDATASIZE PUSH1 0x1F NOT PUSH1 0x1F DUP3 ADD AND DUP3 ADD DUP1 PUSH1 0x40 MSTORE POP DUP2 ADD SWAP1 PUSH2 0x39E SWAP2 SWAP1 PUSH2 0x11D8 JUMP JUMPDEST CALLER SWAP1 JUMP JUMPDEST PUSH1 0x60 PUSH1 0x0 DUP4 SWAP1 POP DUP1 PUSH1 0x1 PUSH1 0x1 PUSH1 0xA0 SHL SUB AND PUSH4 0xC5BF0E9D DUP5 PUSH8 0xDE0B6B3A7640000 MUL ADDRESS ADDRESS DUP10 DUP10 DUP10 PUSH1 0x40 MLOAD PUSH1 0x24 ADD PUSH2 0x109D SWAP4 SWAP3 SWAP2 SWAP1 PUSH2 0x13AC JUMP JUMPDEST PUSH1 0x40 DUP1 MLOAD PUSH1 0x1F NOT DUP2 DUP5 SUB ADD DUP2 MSTORE SWAP2 DUP2 MSTORE PUSH1 0x20 DUP3 ADD DUP1 MLOAD PUSH1 0x1 PUSH1 0x1 PUSH1 0xE0 SHL SUB AND PUSH4 0x2A77B18B PUSH1 0xE0 SHL OR SWAP1 MSTORE MLOAD PUSH1 0xE0 DUP7 SWAP1 SHL PUSH1 0x1 PUSH1 0x1 PUSH1 0xE0 SHL SUB NOT AND DUP2 MSTORE PUSH2 0x10E9 SWAP5 SWAP4 SWAP3 SWAP2 SWAP1 PUSH1 0x4 ADD PUSH2 0x14E1 JUMP JUMPDEST PUSH1 0x0 PUSH1 0x40 MLOAD DUP1 DUP4 SUB DUP2 PUSH1 0x0 DUP8 DUP1 EXTCODESIZE ISZERO DUP1 ISZERO PUSH2 0x1103 JUMPI PUSH1 0x0 DUP1 REVERT JUMPDEST POP GAS CALL ISZERO DUP1 ISZERO PUSH2 0x1117 JUMPI RETURNDATASIZE PUSH1 0x0 DUP1 RETURNDATACOPY RETURNDATASIZE PUSH1 0x0 REVERT JUMPDEST POP POP POP POP PUSH1 0x40 MLOAD RETURNDATASIZE PUSH1 0x0 DUP3 RETURNDATACOPY PUSH1 0x1F RETURNDATASIZE SWAP1 DUP2 ADD PUSH1 0x1F NOT AND DUP3 ADD PUSH1 0x40 MSTORE PUSH2 0x113F SWAP2 SWAP1 DUP2 ADD SWAP1 PUSH2 0x11F8 JUMP JUMPDEST SWAP6 SWAP5 POP POP POP POP POP JUMP JUMPDEST PUSH1 0x0 DUP2 MLOAD DUP4 MLOAD EQ PUSH2 0x115B JUMPI POP PUSH1 0x0 PUSH2 0x116F JUMP JUMPDEST DUP2 DUP1 MLOAD SWAP1 PUSH1 0x20 ADD KECCAK256 DUP4 DUP1 MLOAD SWAP1 PUSH1 0x20 ADD KECCAK256 EQ SWAP1 POP JUMPDEST SWAP3 SWAP2 POP POP JUMP JUMPDEST PUSH1 0x0 PUSH1 0x20 DUP3 DUP5 SUB SLT ISZERO PUSH2 0x1186 JUMPI DUP1 DUP2 REVERT JUMPDEST DUP2 CALLDATALOAD PUSH2 0x1191 DUP2 PUSH2 0x15BD JUMP JUMPDEST SWAP4 SWAP3 POP POP POP JUMP JUMPDEST PUSH1 0x0 DUP1 PUSH1 0x0 PUSH1 0x60 DUP5 DUP7 SUB SLT ISZERO PUSH2 0x11AC JUMPI DUP2 DUP3 REVERT JUMPDEST DUP4 CALLDATALOAD PUSH2 0x11B7 DUP2 PUSH2 0x15BD JUMP JUMPDEST SWAP3 POP PUSH1 0x20 DUP5 ADD CALLDATALOAD PUSH2 0x11C7 DUP2 PUSH2 0x15BD JUMP JUMPDEST SWAP3 SWAP6 SWAP3 SWAP5 POP POP POP PUSH1 0x40 SWAP2 SWAP1 SWAP2 ADD CALLDATALOAD SWAP1 JUMP JUMPDEST PUSH1 0x0 PUSH1 0x20 DUP3 DUP5 SUB SLT ISZERO PUSH2 0x11E9 JUMPI DUP1 DUP2 REVERT JUMPDEST DUP2 MLOAD DUP1 ISZERO ISZERO DUP2 EQ PUSH2 0x1191 JUMPI DUP2 DUP3 REVERT JUMPDEST PUSH1 0x0 PUSH1 0x20 DUP3 DUP5 SUB SLT ISZERO PUSH2 0x1209 JUMPI DUP1 DUP2 REVERT JUMPDEST DUP2 MLOAD PUSH8 0xFFFFFFFFFFFFFFFF DUP1 DUP3 GT ISZERO PUSH2 0x1220 JUMPI DUP3 DUP4 REVERT JUMPDEST DUP2 DUP5 ADD SWAP2 POP DUP5 PUSH1 0x1F DUP4 ADD SLT PUSH2 0x1233 JUMPI DUP3 DUP4 REVERT JUMPDEST DUP2 MLOAD DUP2 DUP2 GT ISZERO PUSH2 0x1241 JUMPI DUP4 DUP5 REVERT JUMPDEST PUSH1 0x40 MLOAD PUSH1 0x1F DUP3 ADD PUSH1 0x1F NOT AND DUP2 ADD PUSH1 0x20 ADD DUP4 DUP2 GT DUP3 DUP3 LT OR ISZERO PUSH2 0x1261 JUMPI DUP6 DUP7 REVERT JUMPDEST PUSH1 0x40 MSTORE DUP2 DUP2 MSTORE DUP4 DUP3 ADD PUSH1 0x20 ADD DUP8 LT ISZERO PUSH2 0x1278 JUMPI DUP5 DUP6 REVERT JUMPDEST PUSH2 0x1289 DUP3 PUSH1 0x20 DUP4 ADD PUSH1 0x20 DUP8 ADD PUSH2 0x1591 JUMP JUMPDEST SWAP7 SWAP6 POP POP POP POP POP POP JUMP JUMPDEST PUSH1 0x0 DUP1 PUSH1 0x40 DUP4 DUP6 SUB SLT ISZERO PUSH2 0x12A5 JUMPI DUP2 DUP3 REVERT JUMPDEST DUP3 CALLDATALOAD PUSH2 0x12B0 DUP2 PUSH2 0x15BD JUMP JUMPDEST SWAP2 POP PUSH1 0x20 DUP4 ADD CALLDATALOAD PUSH2 0x12C0 DUP2 PUSH2 0x15BD JUMP JUMPDEST DUP1 SWAP2 POP POP SWAP3 POP SWAP3 SWAP1 POP JUMP JUMPDEST PUSH1 0x0 DUP1 PUSH1 0x0 PUSH1 0x60 DUP5 DUP7 SUB SLT ISZERO PUSH2 0x11AC JUMPI DUP3 DUP4 REVERT JUMPDEST PUSH1 0x0 DUP1 PUSH1 0x0 DUP1 PUSH1 0x80 DUP6 DUP8 SUB SLT ISZERO PUSH2 0x12F4 JUMPI DUP1 DUP2 REVERT JUMPDEST DUP5 CALLDATALOAD PUSH2 0x12FF DUP2 PUSH2 0x15BD JUMP JUMPDEST SWAP4 POP PUSH1 0x20 DUP6 ADD CALLDATALOAD SWAP3 POP PUSH1 0x40 DUP6 ADD CALLDATALOAD PUSH2 0x1316 DUP2 PUSH2 0x15BD JUMP JUMPDEST SWAP2 POP PUSH1 0x60 DUP6 ADD CALLDATALOAD PUSH2 0x1326 DUP2 PUSH2 0x15BD JUMP JUMPDEST SWAP4 SWAP7 SWAP3 SWAP6 POP SWAP1 SWAP4 POP POP JUMP JUMPDEST PUSH1 0x0 PUSH1 0x20 DUP3 DUP5 SUB SLT ISZERO PUSH2 0x1342 JUMPI DUP1 DUP2 REVERT JUMPDEST POP MLOAD SWAP2 SWAP1 POP JUMP JUMPDEST PUSH1 0x0 DUP1 PUSH1 0x40 DUP4 DUP6 SUB SLT ISZERO PUSH2 0x135B JUMPI DUP2 DUP3 REVERT JUMPDEST POP POP DUP1 MLOAD PUSH1 0x20 SWAP1 SWAP2 ADD MLOAD SWAP1 SWAP3 SWAP1 SWAP2 POP JUMP JUMPDEST PUSH1 0x0 DUP2 MLOAD DUP1 DUP5 MSTORE PUSH2 0x1384 DUP2 PUSH1 0x20 DUP7 ADD PUSH1 0x20 DUP7 ADD PUSH2 0x1591 JUMP JUMPDEST PUSH1 0x1F ADD PUSH1 0x1F NOT AND SWAP3 SWAP1 SWAP3 ADD PUSH1 0x20 ADD SWAP3 SWAP2 POP POP JUMP JUMPDEST PUSH1 0x1 PUSH1 0x1 PUSH1 0xA0 SHL SUB SWAP2 SWAP1 SWAP2 AND DUP2 MSTORE PUSH1 0x20 ADD SWAP1 JUMP JUMPDEST PUSH1 0x1 PUSH1 0x1 PUSH1 0xA0 SHL SUB SWAP4 DUP5 AND DUP2 MSTORE SWAP2 SWAP1 SWAP3 AND PUSH1 0x20 DUP3 ADD MSTORE PUSH1 0x40 DUP2 ADD SWAP2 SWAP1 SWAP2 MSTORE PUSH1 0x60 ADD SWAP1 JUMP JUMPDEST PUSH1 0x1 PUSH1 0x1 PUSH1 0xA0 SHL SUB SWAP3 SWAP1 SWAP3 AND DUP3 MSTORE PUSH1 0x20 DUP3 ADD MSTORE PUSH1 0x40 ADD SWAP1 JUMP JUMPDEST PUSH1 0x0 PUSH1 0x20 DUP3 MSTORE PUSH2 0x1191 PUSH1 0x20 DUP4 ADD DUP5 PUSH2 0x136C JUMP JUMPDEST PUSH1 0x1 PUSH1 0x1 PUSH1 0xA0 SHL SUB SWAP5 DUP6 AND DUP2 MSTORE PUSH1 0x20 DUP2 ADD SWAP4 SWAP1 SWAP4 MSTORE SWAP3 AND PUSH1 0x40 DUP3 ADD MSTORE PUSH1 0x60 DUP2 ADD SWAP2 SWAP1 SWAP2 MSTORE PUSH1 0x80 ADD SWAP1 JUMP JUMPDEST PUSH1 0x20 DUP1 DUP3 MSTORE PUSH1 0x26 SWAP1 DUP3 ADD MSTORE PUSH32 0x4F776E61626C653A206E6577206F776E657220697320746865207A65726F2061 PUSH1 0x40 DUP3 ADD MSTORE PUSH6 0x646472657373 PUSH1 0xD0 SHL PUSH1 0x60 DUP3 ADD MSTORE PUSH1 0x80 ADD SWAP1 JUMP JUMPDEST PUSH1 0x20 DUP1 DUP3 MSTORE PUSH1 0x17 SWAP1 DUP3 ADD MSTORE PUSH32 0x6661696C656420657865637574654F7065726174696F6E000000000000000000 PUSH1 0x40 DUP3 ADD MSTORE PUSH1 0x60 ADD SWAP1 JUMP JUMPDEST PUSH1 0x20 DUP1 DUP3 MSTORE DUP2 DUP2 ADD MSTORE PUSH32 0x4F776E61626C653A2063616C6C6572206973206E6F7420746865206F776E6572 PUSH1 0x40 DUP3 ADD MSTORE PUSH1 0x60 ADD SWAP1 JUMP JUMPDEST SWAP1 DUP2 MSTORE PUSH1 0x20 ADD SWAP1 JUMP JUMPDEST DUP5 DUP2 MSTORE PUSH1 0x1 PUSH1 0x1 PUSH1 0xA0 SHL SUB DUP5 DUP2 AND PUSH1 0x20 DUP4 ADD MSTORE DUP4 AND PUSH1 0x40 DUP3 ADD MSTORE PUSH1 0xA0 PUSH1 0x60 DUP3 ADD DUP2 SWAP1 MSTORE PUSH1 0x0 SWAP1 DUP3 ADD DUP2 SWAP1 MSTORE PUSH1 0xC0 PUSH1 0x80 DUP4 ADD DUP2 SWAP1 MSTORE PUSH2 0x1289 SWAP1 DUP4 ADD DUP5 PUSH2 0x136C JUMP JUMPDEST SWAP1 DUP2 MSTORE PUSH1 0x40 PUSH1 0x20 DUP3 ADD DUP2 SWAP1 MSTORE PUSH1 0x4 SWAP1 DUP3 ADD MSTORE PUSH4 0x3637B0B7 PUSH1 0xE1 SHL PUSH1 0x60 DUP3 ADD MSTORE PUSH1 0x80 ADD SWAP1 JUMP JUMPDEST SWAP1 DUP2 MSTORE PUSH1 0x40 PUSH1 0x20 DUP3 ADD DUP2 SWAP1 MSTORE PUSH1 0x5 SWAP1 DUP3 ADD MSTORE PUSH5 0x3A37B5B2B7 PUSH1 0xD9 SHL PUSH1 0x60 DUP3 ADD MSTORE PUSH1 0x80 ADD SWAP1 JUMP JUMPDEST SWAP1 DUP2 MSTORE PUSH1 0x40 PUSH1 0x20 DUP3 ADD DUP2 SWAP1 MSTORE PUSH1 0x4 SWAP1 DUP3 ADD MSTORE PUSH4 0x55534443 PUSH1 0xE0 SHL PUSH1 0x60 DUP3 ADD MSTORE PUSH1 0x80 ADD SWAP1 JUMP JUMPDEST PUSH1 0x0 JUMPDEST DUP4 DUP2 LT ISZERO PUSH2 0x15AC JUMPI DUP2 DUP2 ADD MLOAD DUP4 DUP3 ADD MSTORE PUSH1 0x20 ADD PUSH2 0x1594 JUMP JUMPDEST DUP4 DUP2 GT ISZERO PUSH2 0x39E JUMPI POP POP PUSH1 0x0 SWAP2 ADD MSTORE JUMP JUMPDEST PUSH1 0x1 PUSH1 0x1 PUSH1 0xA0 SHL SUB DUP2 AND DUP2 EQ PUSH2 0x15D2 JUMPI PUSH1 0x0 DUP1 REVERT JUMPDEST POP JUMP INVALID 0xEA CALLDATASIZE 0xF6 0xEA 0xC8 0xBC ISZERO 0x4E SAR EXTCODECOPY SWAP9 OR CALLDATASIZE 0xBC PUSH30 0x5CABF77764B782CDD8735EC9AFFA5815C6A2646970667358221220D4815F JUMPDEST CALLVALUE PUSH6 0x1FF9E6DCD09F 0xAF MSTORE8 DUP13 0xE 0x5C DUP16 CHAINID SAR GT 0xFB BALANCE MSIZE DUP12 DUP6 NOT 0x5C 0x4A 0xBF SWAP10 0x2D PUSH5 0x736F6C6343 STOP MOD 0xC STOP CALLER ",
  "sha1": "93a7944839153e602e3fbed20e5ca26b261d1925",
  "source": "pragma solidity ^0.6.0;\npragma experimental ABIEncoderV2;\n// \"SPDX-License-Identifier: Apache-2.0\"\n\nimport \"@openzeppelin/contracts/token/ERC20/IERC20.sol\";\nimport \"@openzeppelin/contracts/token/ERC20/ERC20.sol\";\nimport \"@openzeppelin/contracts/access/Ownable.sol\";\n\n///////////////////////////////\ninterface IToken {\n    function flashBorrow(\n        uint256 borrowAmount,\n        address borrower,\n        address target,\n        string calldata signature,\n        bytes calldata data\n    ) external payable returns (bytes memory);\n}\n\n///////////////////////////////\ninterface IKyber {\n    function swapEtherToToken(IERC20 token, uint256 minRate)\n        external\n        payable\n        returns (uint256);\n\n    function swapTokenToEther(\n        IERC20 token,\n        uint256 tokenQty,\n        uint256 minRate\n    ) external returns (uint256);\n\n    function swapTokenToToken(\n        IERC20 src,\n        uint256 srcAmount,\n        IERC20 dest,\n        uint256 minConversionRate\n    ) external returns (uint256); //\n\n    function getExpectedRate(\n        ERC20 src,\n        ERC20 dest,\n        uint256 srcQty\n    ) external view returns (uint256 expectedRate, uint256 slippageRate);\n}\n\n///////////////////////////////\n\ncontract BZxFlashLoaner is Ownable {\n    IKyber public KYBER_PROXY = IKyber(\n        0x9AAb3f75489902f3a48495025729a0AF77d4b11e\n    );\n    uint256 constant MAX_UINT = 2**256 - 1;\n    ERC20 public constant ETH_TOKEN_ADDRESS = ERC20(\n        0x00eeeeeeeeeeeeeeeeeeeeeeeeeeeeeeeeeeeeeeee\n    );\n\n    address public constant USDC = 0xA0b86991c6218b36c1d19D4a2e9Eb0cE3606eB48;\n\n    function getRate(\n        ERC20 srcToken,\n        ERC20 destToken,\n        uint256 srcQty\n    ) public returns (uint256) {\n        uint256 expected;\n        uint256 slippage;\n        (expected, slippage) = KYBER_PROXY.getExpectedRate(\n            srcToken,\n            destToken,\n            srcQty\n        );\n        return slippage;\n    }\n\n    //tx = bzx.swapEtherToToken(\"0xA0b86991c6218b36c1d19D4a2e9Eb0cE3606eB48\", accounts[0], {'from':accounts[0], 'value':10000000000000000000})\n    function swapEtherToToken(ERC20 token, address destAddress) public payable {\n        uint256 minRate;\n        (, minRate) = KYBER_PROXY.getExpectedRate(\n            ETH_TOKEN_ADDRESS,\n            token,\n            msg.value\n        );\n        uint256 destAmount = KYBER_PROXY.swapEtherToToken.value(msg.value)(\n            token,\n            minRate\n        );\n        require(token.transfer(destAddress, destAmount));\n    }\n\n    //tx = bzx.swapTokenToToken(\"0xA0b86991c6218b36c1d19D4a2e9Eb0cE3606eB48\", usdc.balanceOf(accounts[0]), \"0x6b175474e89094c44da98b954eedeac495271d0f\", accounts[0], {'from': accounts[0]})\n    function swapTokenToToken(\n        ERC20 srcToken,\n        uint256 srcQty,\n        ERC20 destToken,\n        address destAddress\n    ) public {\n        uint256 minRate;\n        (, minRate) = KYBER_PROXY.getExpectedRate(srcToken, destToken, srcQty);\n        // require(srcToken.transferFrom(msg.sender, address(this), srcQty));\n        // require(srcToken.approve(address(KYBER_PROXY), 0));\n        srcToken.approve(address(KYBER_PROXY), srcQty);\n        uint256 destAmount = KYBER_PROXY.swapTokenToToken(\n            srcToken,\n            srcQty,\n            destToken,\n            minRate\n        );\n        // require(destToken.transfer(destAddress, destAmount));\n    }\n\n    function executeOperation(\n        address loanToken,\n        address iToken,\n        uint256 loanAmount\n    ) external returns (bytes memory success) {\n        emit ExecuteOperation(loanToken, iToken, loanAmount);\n        /////////////////////////////////////////////////////\n\n        emit BalanceOf(IERC20(USDC).balanceOf(address(this)), \"USDC\");\n        emit BalanceOf(IERC20(loanToken).balanceOf(address(this)), \"loan\");\n        ERC20(USDC).approve(address(KYBER_PROXY), uint(-1));\n        ERC20(loanToken).approve(address(KYBER_PROXY), uint(-1));\n\n        uint256 minRate;\n        uint256 amount = loanAmount * 10**18;\n        (, minRate) = KYBER_PROXY.getExpectedRate(ERC20(loanToken), ERC20(USDC), amount);\n        uint256 destAmount = KYBER_PROXY.swapTokenToToken(\n            ERC20(loanToken),\n            amount,\n            ERC20(USDC),\n            minRate\n        );\n\n        amount = loanAmount * 10**6;\n        (, minRate) = KYBER_PROXY.getExpectedRate(ERC20(USDC), ERC20(loanToken), amount);\n        destAmount = KYBER_PROXY.swapTokenToToken(\n            ERC20(USDC),\n            amount,\n            ERC20(loanToken),\n            minRate\n        );\n\n        emit BalanceOf(IERC20(USDC).balanceOf(address(this)), \"USDC\");\n        emit BalanceOf(IERC20(loanToken).balanceOf(address(this)), \"loan\");\n        /////////////////////////////////////////////////////\n        repayFlashLoan(loanToken, iToken, loanAmount* 10**18);\n        return bytes(\"1\");\n    }\n\n    function doStuffWithFlashLoan(\n        address token,\n        address iToken,\n        uint256 amount\n    ) external onlyOwner {\n        bytes memory result;\n        emit BalanceOf(IERC20(token).balanceOf(address(this)), \"token\");\n\n        result = initiateFlashLoanBzx(token, iToken, amount);\n\n        emit BalanceOf(IERC20(token).balanceOf(address(this)), \"token\");\n        if (hashCompareWithLengthCheck(bytes(\"1\"), result)) {\n            revert(\"failed executeOperation\");\n        }\n    }\n\n    function hashCompareWithLengthCheck(bytes memory a, bytes memory b)\n        internal\n        pure\n        returns (bool)\n    {\n        if (a.length != b.length) {\n            return false;\n        } else {\n            return keccak256(a) == keccak256(b);\n        }\n    }\n\n    function repayFlashLoan(\n        address loanToken,\n        address iToken,\n        uint256 loanAmount\n    ) internal {\n        IERC20(loanToken).transfer(iToken, loanAmount);\n    }\n\n    function initiateFlashLoanBzx(\n        address loanToken,\n        address iToken,\n        uint256 flashLoanAmount\n    ) internal returns (bytes memory success) {\n        IToken iTokenContract = IToken(iToken);\n        return\n            iTokenContract.flashBorrow(\n                flashLoanAmount * 10**18,\n                address(this),\n                address(this),\n                \"\",\n                abi.encodeWithSignature(\n                    \"executeOperation(address,address,uint256)\",\n                    loanToken,\n                    iToken,\n                    flashLoanAmount\n                )\n            );\n    }\n\n    event ExecuteOperation(\n        address loanToken,\n        address iToken,\n        uint256 loanAmount\n    );\n\n    event BalanceOf(uint256 balance, string  name);\n}\n",
  "sourcePath": "contracts/BZxFlashLoaner.sol",
  "type": "contract"
}